:100000000C94CF100C94F7100C94F7100C94F7107C
:100010000C94F7100C94F7100C94F7100C94F71044
:100020000C94F7100C94F7100C94F7100C94F71034
:100030000C94F7100C94F7100C94F7100C94F71024
:100040000C9442250C94F7100C9453280C9485289A
:100050000C94F7100C94F7100C94F7100C94F71004
:100060000C94B7190C94F710D316DA16E016E716AD
:10007000ED16001706171517211728172E173E170C
:1000800053175A1707634236B79BD8A71A396856D1
:1000900018AEBAAB558C1D3CB7CC5763BD6DEDFDAA
:1000A000753EF6177231BF000000803F0800000067
:1000B000BE922449123EABAAAA2ABECDCCCC4C3E5D
:1000C00000000080BEABAAAAAA3E00000000BF004C
:1000D0000000803F0000000000084178D3BB438748
:1000E000D1133D190E3CC3BD4282AD2B3E68EC825C
:1000F00076BED98FE1A93E4C80EFFFBE01C4FF7FE1
:100100003F000000000000000000000000000000B0
:10011000000000000000000000000007FFFFFFFFDC
:10012000E000000000000000000007FFFFFFFFFFED
:10013000FFC000000000000000003FFFE0000007DB
:10014000FFFC0000000000000000FF800000000035
:1001500001FF0000000000000003F80000000000A4
:10016000001F8000000000000007E07C000000008D
:100170003E07E00000000000000F807C000000004F
:100180003E03F00000000000000F007E00000000B1
:100190007E00F00000000000001E007E0000000055
:1001A0007E00F80000000000001E007E000000003D
:1001B0007E00780000000000003C007E000000008F
:1001C0007E007C0000000000003C007E000000007B
:1001D000FE003C0000000000003C007F000000002A
:1001E000FE003C0000000000003C007F000000001A
:1001F000FE003C00000000000078007F00000000CE
:10020000FE003C00000000000078007F00000000BD
:10021000FE001E00000000000078007F800000014A
:10022000FC001E00000000000078007F800000013C
:10023000FC001E00000000000078007F800000012C
:10024000FC001E00000000000078003F800000015C
:10025000FC001E00000000000078003F800000034A
:10026000FC001E00000000000078003FC0000003FA
:10027000FC001E00000000000078003FC0000003EA
:10028000FC001E00000000000078003FC0000003DA
:10029000FC001E00000000000078003FC0000007C6
:1002A000FC001E00000000000078003FE000000796
:1002B000FC001E00000000000078003FE000000786
:1002C000FC001E00000000000078003FE000000776
:1002D000FC001E00000000000078003FE000000F5E
:1002E000FC001E00000000000078003FF000000F3E
:1002F000FC001E00000000000078003FF000000F2E
:10030000FC001E00000000000078003FF000000F1D
:10031000F8001E00000000000078003FF800001FF9
:10032000F8001E00000000000078003FF800001FE9
:10033000F8001C00000000000038001FFC00003F17
:10034000F8001C00000000000038001FFC00003F07
:10035000F8003C00000000000038001FFE00007F95
:10036000F8003C0000000000003C001FFF0001FFFF
:10037000F8003C0000000000003C001FFFE007FF09
:10038000F8003C0000000000003C001FFFFFFFFFE2
:10039000F8003C0000000000003C001FFFFFFFFFD2
:1003A000F8003C0000000000003C001FFFFFFFFFC2
:1003B000F8003C0000000000003C001FFFFFFFFFB2
:1003C000F800380000000000001C001FFFF01FFFB5
:1003D000F800380000000000001C001FFF8001FF33
:1003E000F800780000000000001E001FFF0000FF62
:1003F000F800780000000000001E001FFF0000FF52
:10040000F000780000000000001E001FFE00007FCA
:10041000F000780000000000000E000FFE00007FDA
:10042000F000F00000000000000F000FFC00007F53
:10043000F000F00000000000000F000FFC00003F83
:10044000F000F00000000000000F000FFC00003F73
:10045000F001E000000000000007800FF800003FFE
:10046000F001E000000000000007800FF800001F0E
:10047000F003E000000000000003C00FF800001FC0
:10048000F003C000000000000003E00FF800001FB0
:10049000F0078000000000000001F00FF000001FD6
:1004A000F00F8000000000000000FC0FF000000FC3
:1004B000E03F00000000000000007F80000000001E
:1004C00001FE00000000000000001FFE0000000010
:1004D0007FF8000000000000000003FFFFFFFFFFA7
:1004E000FFC00000000000000000003FFFFFFFFF12
:1004F000FC000000000000000000000007FFFFE01B
:10050000000000000000A6070D05207E2A00000064
:10051000000A000100000A190C04E820000D09116E
:1005200006E72F0016181301E97100131F1302E6E6
:10053000BB001A1A1F05E7100115191903E852012B
:1005400005090806E758010D210C03E78E010D216E
:100550000CFFE7C4010C0B0E05E7D50112101403C4
:10056000F1F901070B0A01FC03020A040C02F60868
:100570000206050A02FC0C020F190A00E83B0212EF
:10058000191303E874020D191306E89D02151913D7
:1005900001E8DF0214191302E81E0313191302E81D
:1005A0005A0314181302E9960313191303E8D2032C
:1005B00013181305E90B0414191302E84A0413195C
:1005C0001302E8860409120C04EF9B040A180C03BA
:1005D000EFB90413111403F0E204140C1402F30035
:1005E0000513111401F12905121A1506E7640521F6
:1005F0001F2203E7E405171A1901E72F06181A1935
:1006000003E77D06181A1904E7CB06181A1903E741
:100610001907181A1703E76707171A1503E7B20730
:10062000181A1B04E700081A1A1902E755080A1AD3
:100630000A02E77608141A1302E7B7081A1A190310
:10064000E70C09121A1503E747091F1A1D02E7AC48
:10065000091B1A1902E7040A191A1B04E7560A179C
:100660001A1703E7A10A191B1B04E7F60A181A193F
:1006700003E7440B161A1703E78C0B151A1505E749
:10068000D10B181A1904E71F0C161A1706E7670C86
:10069000201A2106E7CF0C1B1A1701E7270D161A9F
:1006A0001706E76F0D191A1501E7C10D0F210C018F
:1006B000E7FF0D05190A05E80F0E0F210CFFE74DA6
:1006C0000E100F1404E96B0E150313FE05730E05CF
:1006D000050C06E7770E12131302EEA20E141A157C
:1006E00002E7E30E12131303EE0E0F161A1503E7BB
:1006F000560F13131302EE840F0D1A0C03E7AF0FFE
:10070000161B1501EEFA0F141A1502E73B100A1A10
:100710000A02E75C100F220AFEE79C10151A13026A
:10072000E7E1100A1A0A02E702111E131F02EE4A3D
:100730001114131502EE7A1113131503EEA81116F6
:100740001B1500EEF311141B1503EE37120F130ED9
:1007500002EE5B1212131302EE86120B170C04EA60
:10076000A61214131503EED61212131305EE01137D
:100770001B131B04EE421316131301EE7713161B03
:100780001301EEC21313131101EEF0130E210E022A
:10079000E72A1409210A02E750140E210E02E78A03
:1007A0001411061403F60601C07C1F0FC3E0F83EC7
:1007B0000F83C0F07C1E0781E0781C0701C0607CBD
:1007C0001F07C3F0F800787BC3FE3FE1EF0F787B93
:1007D000839C1CC0C0003C3800F1E00787001E3C31
:1007E00000F0E03FFFF0FFFFC7FFFF1FFFF80F0E15
:1007F000003C7800E1E0078F001C3C07FFFE1FFF74
:10080000F87FFFE3FFFF01E3C00F0E003C7801E13A
:10081000C0078F003C3800000C00018000FC00FF86
:10082000C03FFC0FFFC3E67878CF1E39E3C73C78A2
:10083000C00F9801FF001FF801FF801FF8007F80A4
:100840000FF003BE0067CF8CF9F19F3E77C7EFF83A
:100850007FFE0FFF80FFE003E0003800060000C0CD
:100860000000000701E00381FE00C0FF80707FF000
:10087000381E3C1C0F07060381C380E0F1C03C78A2
:10088000E00FFE3001FF1C007F8E00078300000197
:1008900083E000E3FE0071FF8018FFF00C3C3C0792
:1008A0001C07038701C0C1E1E0607FF8380FFC1C22
:1008B00003FE06003E00001F0003FC003FF003FFA4
:1008C000803F3C01F1E00F8F007CF003FF800FF8C8
:1008D000003F0003F0007FC78FFE3CFCFBCF83FE90
:1008E000F81FE7C07E3E03E1F01F0FE3FC7FFFE14E
:1008F000FFFF87FE7C0FE1F07BFFEF7B9CC0007861
:1009000007807803803C03C01E01E01E00F00F004A
:100910007803C03C01E00F00F007803C01E00F00CD
:100920007803C01E00F007801C00F007803C00E048
:1009300007801C0001C00F003801E00F007801C0E3
:100940000F007803C01E00F007803C01E00F00F8A4
:1009500007803C01E01E00F007807803C03C03C024
:100960001E01E01E00F00F00F0000300700704639A
:10097000FFF7FF1F83F03B873821000078003C0021
:100980000F0003C000F0007C07FFFDFFFFFFFFBF6B
:10099000FFE03C000F0003C000F0007C001E003EA2
:1009A0007CF3E7C1870C39E3007FDFFFFBFE7DF7B7
:1009B000BEF8000E0018007000C0038006001C0086
:1009C0003000E0018007000C0038006001C0030027
:1009D0000E0018007000C0038006001C003000E00C
:1009E0000000FC007FC07FF83FFE0F8FC7C1F1E021
:1009F0007CF81F3E07DF01F7C07DF03F7C0FBF038F
:100A0000EF80FBE03EF81F3E07CF81E3E0F8FC7C7F
:100A10001FFF07FF80FFC00F8000007003803C03B2
:100A2000E0FF3FF3FF9FFC03E01F01F00F807C031A
:100A3000E01E01F00F807C03E03E01F00F807C039C
:100A4000E03E00001F8007FF007FFC07FFE07E1FE5
:100A500083E07C1F03E1F01F0F80F8000F80007C13
:100A60000007C0007C0007E000FC000FC001F80098
:100A70003F8003F8003F0003F0001FFFE1FFFF0F7E
:100A8000FFF07FFF80007F001FFC03FFE07FFF0F70
:100A900083F0F01F1F01F1E01F0003E000FC00FFE6
:100AA000800FF000FF800FFC000FC0007C0007CF1C
:100AB000807CF807CF80F8FC3F8FFFF07FFE03FFBC
:100AC000C00FE0000007E001FC007F001FE003FC16
:100AD00000EF803DF00F7C03CF80F1F01C3E070754
:100AE000C1E1F0783E1E07C3FFFE7FFFDFFFFBFF83
:100AF000FF001F0003E00078001F0003E0007C00FF
:100B000001FFF03FFF03FFF03FFF07800078000F79
:100B10000000F7E00FFF01FFF81FFF83F0FC3E0726
:100B2000C0007C0007C0007C00078F80F8F81F8F92
:100B3000C3F0FFFE07FFC03FF800FE00007E003F4D
:100B4000F00FFF03FFE0F87E3E07C78001F0003C96
:100B5000FC07FFC1FFFC3FFFC7E1F8F81F3E03E7BA
:100B6000807CF00F9E01E3C07C781F0F87E0FFF8C8
:100B70001FFE01FF800FC0007FFFEFFFF9FFFF7F27
:100B8000FFE000F8003E000F8003E000F8003E00A8
:100B9000078001F0007C001F0003E000F8001F0048
:100BA00007C000F8003E0007C001F0003E0007C08B
:100BB00000007F001FFC07FFE0FFFF0F81F1F00F37
:100BC0001E00F1E01E1F07E0FFFC07FF00FFF81FFB
:100BD000FF83F0FC7C07C7C07CF807CF807CF80F50
:100BE0008F80F8FC3F0FFFF07FFE03FF800FE000D7
:100BF000007E003FF00FFF03FFE0FC3E3F03C7C055
:100C000079F00F3E01E7C03CF80F9F03E3F0FC7F53
:100C1000FF87FFF07FFE07E78001F0003C7C0F8F2D
:100C2000C3E1FFF81FFE01FF800FC0000F87C3C3A1
:100C3000E1F0000000000000000003E1F0F0F87CAB
:100C40000007C1F0783E0F800000000000000000A7
:100C5000000F83E0F07C1F00C070180E0F0300002F
:100C60000020003C003F803FE03FFC3FFC1FFC07B2
:100C7000FC00FC001FF003FF801FFE00FFF003FEDE
:100C8000001FC000780003001FFFF3FFFE3FFFE3DB
:100C9000FFFE000000000000000000007FFFC7FF13
:100CA000FCFFFF8FFFF8180003C0007F000FF80162
:100CB000FFE00FFF003FF801FF0007E007FC07FF20
:100CC00007FF87FF80FF803F8007800080000003D0
:100CD000F803FFC1FFF8FFFE7E1FDF03FF807FE008
:100CE0001FF807C003E001F800FC00FE007F003F92
:100CF000801F80078003E000F0000000000007C0B4
:100D000001F000FC003E000F800000007F80000129
:100D1000FFF80003FFFE0007F01FC00FC003E00F45
:100D20008000F80F00003C0F01F1CF0F03FDC78FCB
:100D300003FFE1C703E3E0E703C0F07383C0783B40
:100D400081E0381DC1E01C1CC0F01C0EE0700E0FCD
:100D500070780E07383C0F071C1E0F878E0F8FCF41
:100D60008707FFFF83C1FE7F00E03C1F0078000083
:100D7000001E0000000FC0010003F8078000FFFF05
:100D8000C0001FFFE00001FF00000003F0000FE0C3
:100D9000001FE0007FC000FF8003FF0007FE001F70
:100DA0007C007EF800F9F003F3E007C3E01F87C082
:100DB0003E0F80F81F01F03E07FFFC1FFFF83FFFCA
:100DC000F0FFFFF1F003E7C007CF800FBE001F7CEC
:100DD000003FF0007C07FFF007FFFC07FFFE0FFF5E
:100DE000FF0FC03F0F801F0F801F0F801F1F801E2F
:100DF0001F803E1F007C1FFFF81FFFF03FFFF83FE2
:100E0000FFF83E00FC3E007C3E007C7E007C7C00C7
:100E10007C7C00F87C01F87FFFF0FFFFE0FFFFC063
:100E2000FFFE00001FE0007FF801FFFC03FFFE074C
:100E3000E07F0FC03F1F801F3F001F3E001F7E004E
:100E4000007C00007C00007C0000F80000F800003E
:100E5000F80000F80000F8007CF8007CFC00F8FCCA
:100E600001F87F07F07FFFE03FFFC00FFF0003FCAA
:100E70000007FFE007FFF807FFFC0FFFFE0F807E73
:100E80000F803F0F801F1F801F1F801F1F001F1F0D
:100E9000001F1F001F3F001F3E003E3E003E3E0061
:100EA0003E3E003E7E007C7C007C7C00F87C01F8AD
:100EB0007C07F0FFFFE0FFFFC0FFFF00FFF8000727
:100EC000FFFF07FFFE07FFFE0FFFFE0F80000F80F2
:100ED000000F80000F80001F80001F00001F000017
:100EE0001FFFF01FFFF03FFFF03FFFF03E00003E0E
:100EF00000003E00007E00007C00007C00007C00C2
:100F000000FFFFF0FFFFE0FFFFE0FFFFE007FFFE55
:100F10000FFFFC3FFFF07FFFE0F80001F00003E06F
:100F2000000FC0001F00003E00007C0000FFFF0318
:100F3000FFFE07FFFC0FFFF01F00003E0000FC005B
:100F400001F00003E00007C0000F80003F00007CBC
:100F50000000F80001F00000001FE0007FF801FF32
:100F6000FC03FFFE07E07E0F803F1F001F3E001FB7
:100F70003E00007C00007C00007C0000F803FFF8CD
:100F800007FFF807FEF807FEF8003EF8003EFC00F9
:100F90007EFC007C7E00FC7F83FC3FFFFC1FFFBCCF
:100FA0000FFF3803FC3803E007C0F801F07E007C37
:100FB0001F003F07C00F81F003E0FC00F83E003E39
:100FC0000F801F83E007C0FFFFF07FFFFC1FFFFFC4
:100FD00007FFFFC1F003E07C00F83F003E0F800FE9
:100FE00083E007E0F801F03E007C1F801F07C00F80
:100FF000C1F003F07C00F83F003E0007C3F0FC3E68
:101000000F83E0F87E1F07C1F07C3F0FC3E0F83E7E
:101010000F87E1F07C1F07C3F0FC3E000001F000E9
:101020001F0001F0003F0003E0003E0003E0003E2F
:101030000007E0007C0007C0007C000FC000FC003F
:101040000F8000F87C0F8F81F8F81F0F81F0F81FD8
:101050000FC3F0FFFE07FFC03FF801FC0007C00F01
:10106000C1F007E07C03F03F03F80F81F803E0FCD8
:1010700000F87E007E3F001F1F8007CFC001F7E011
:10108000007FF0003FFC000FFF8003FFF000FEFC3C
:10109000003F1F801F87E007C0FC01F03F007C0776
:1010A000E01F01FC0FC03F03E00FE0F801F83E0035
:1010B0003F0007C001F0007C001F000FC003E000EC
:1010C000F8003E001F8007C001F0007C001F000FE9
:1010D000C003E000F8003E000F8007E001F0007C54
:1010E000001F0007FFFFFFFFFFFFBFFFE003F80146
:1010F000FC07F007F81FE00FF03FC03FE07F807F64
:10110000C0FF01FF01FE03FE07DC077C0FB81EF8DD
:101110001F703DF03EF0F7C0F9E1EF81F3C79F0388
:10112000E78F3E07CF3C7C0F9E79F03E3CE3E07CAE
:101130007BC7C0F8F78F81F1FE1E07E3FC7C0F87A9
:10114000F0F81F0FE1F03E1F83E07C3F0F81F07E3F
:101150001F0003E007C07E00F81FC01F03F803E074
:101160007F807C0FF01F01FF03E07FE07C0FBC0F4E
:1011700081F7C1F03EF87C0F8F0F81F1F1F03E3E18
:101180003E07C3C7C0F87DF03E0FBE07C0F7C0F8EA
:101190001FF81F01FE03C03FC0F807F81F007F03C0
:1011A000E00FE07C01F81F001F00001FE0003FFC83
:1011B000007FFF007FFFC07E07F07E01F87C007E8D
:1011C0003E001F3E000F9E0007DF0003EF8001FF7F
:1011D0008000FFC0007FE0007DF0003EF8001F7C33
:1011E000001F3E001F9F800F87E00F83F81F80FFC6
:1011F000FF803FFF800FFF0001FE000007FFE00FB0
:10120000FFF03FFFF07FFFF0F807E1F007C3E00FCA
:101210008FC01F1F003E3E00F87C01F0F807C3FF9F
:10122000FF87FFFE0FFFF81FFF803E0000FC00015C
:10123000F00003E00007C0000F80003F00007C00CA
:1012400000F80001F00000001FC0003FFC007FFF1D
:10125000007FFFC07F07F07E01F87E007E3E001F0A
:101260003E000F9E0007DF0003EF8001F78000FFC4
:10127000C0007FE0007DF0003EF8021F7C039F3E2F
:1012800003FF9F81FF87E07F83F83FC0FFFFE03FC0
:10129000FFF00FFFFC01FE1C00000C0007FFF80729
:1012A000FFFE07FFFE0FFFFF0F803F0F801F0F8025
:1012B0001F0F801F1F801E1F003E1F007C1FFFF896
:1012C0001FFFE03FFFF03FFFF83E01F83E00F83E11
:1012D00000F87E00F87C00F87C01F07C01F07C01D5
:1012E000F0FC01F0F801F0F801F0003FC007FFC08A
:1012F0003FFF81FFFF0FC0FC3E01F1F007C7C01F99
:101300001F00007E0001FC0007FF800FFFC01FFFD1
:10131000C01FFF8003FE0001F80003EF800FBE0036
:101320003CFC01F3F81F87FFFE0FFFF01FFF001FBB
:10133000F0007FFFFBFFFFFFFFFFFFFFF00F8000CC
:10134000FC0007C0003E0001F0000F8000FC000719
:10135000C0003E0001F0000F8000FC0007C0003E0E
:101360000001F0000F8000FC0007C0003E0001F00B
:10137000000F8000FC00000F801F1F801F1F001F38
:101380001F003F1F003E1F003E3E003E3E007E3ECF
:10139000007C3E007C3E007C7C007C7C00FC7C0071
:1013A000F87C00F87C00F8F800F8F801F8F801F093
:1013B000F801F0F803E0FE0FE07FFFC07FFF801F21
:1013C000FE0007F800FC007FF003E7C00F9F007CE1
:1013D0007C01F1F00F87C03E1F01F07C0781F03ED9
:1013E00003C0F00F07C03E1E00F8F803E3C00F9FD4
:1013F000003E7800FBE001EF0007FC001FE0007FEB
:101400000001FC0007E0001F80007C0000F807E0FE
:101410001FF807E03FF80FE03EF80FE07EF81FE00E
:101420007CF81FE07CF83FE0F8F83DE0F8783DE11B
:10143000F07879E1F07879E1E078F9E3E078F1E3C8
:10144000C079F1E7C079E1E78079E1E7807BC1EF1E
:10145000807BC1EF007F81FF007F81FE007F01FE66
:10146000007F01FC007F01FC007E01F8003E01F8D6
:10147000003C01F00003F007E07E01F807E07E0089
:10148000FC1F801F83E001F8F8003F3F0003EFC01E
:10149000007FF0000FFC0000FF00001FE00003F8D9
:1014A00000007F00001FE00007FE0000FFC0003EBC
:1014B000F8000FDF8003F3F000FC3F003F07E00778
:1014C000E0FC01F80FC07E01F81F803F807C00FD2A
:1014D000F807E7E01F1F80FC3E07E0FC1F03F0FC5D
:1014E00007C7E01F1F007EFC00FBE003FF000FF8B2
:1014F000001FE0007F0001F80007E0001F00007CF3
:101500000001F00007C0003F0000F80003E0000FFA
:1015100080003E000007FFFF83FFFF81FFFFC0FF49
:10152000FFE00007E00007E00007E00007F0000729
:10153000F00007F00003F00003F00003F00003F0F8
:101540000003F00003F00003F00003F00003F000DC
:1015500003F00003F80003F80001FFFFC0FFFFE005
:10156000FFFFF07FFFF00001FE03FC07F81FF03CD7
:10157000007800F001E007800F001E003C00F80139
:10158000E003C007800F003C007800F001E0078016
:101590000F001E003C00F801E003C007800FF03F81
:1015A000C07F80FF00E739CE318C631CE739CE3134
:1015B0008C639CE73801FE03FC07F81FE003C007BB
:1015C000800F003E007800F001E003C00F001E0015
:1015D0003C007801E003C007800F003E007800F077
:1015E00001E003C00F001E003C00781FF03FC07FE9
:1015F00080FF00007C00FC01FC01FC03FC039E0753
:101600009E0F1E0F1E1E1E1C0F3C0F780F780FF032
:101610000FFFFFFFFFFFFFFFFEF38C718001FE0154
:10162000FFE0FFF87FFF1F0FC781F0007C00FE077F
:10163000FF87FFE3FEF9F07CF81F3E0FCF87F3FF33
:10164000F8FFFE1FEF81E3F007C0007C0007C00039
:101650007C00078000F8000F8000F9F80FFFC1FF41
:10166000FE1FFFE1FC3F1F83F1F01F3E01F3E01F6F
:101670003C01F3C01F3C03E7C03E7E07C7F1FC7F7F
:10168000FF87FFF0FBFE0F9F8000FC01FFC0FFF80B
:101690007FFF3F0FCF81F7C07DF0007C003E000F41
:1016A0008003E000F80FBE07CFC3F1FFF87FFC0F07
:1016B000FE00FE000000F80003E0000F80003E0086
:1016C00000F80007C0001F007E7C07FDF03FFFC14F
:1016D000FFFE0FE3F83E07E1F01F87C03C3E00F03D
:1016E000F807C3E01F0F807C3E03E0F81F83F0FE85
:1016F00007FFF81FFFE03FFF007E7C0000FE007F39
:10170000E03FFE0FFFE3F07E7C07DF00FBE01F7F82
:10171000FFFFFFFFFFFFFC000F8001F01F3F07E30B
:10172000FFF87FFE03FF003F800000F81FC1FE0F9F
:10173000F07C07C03E0FFE7FF3FF07C03E01F00FB5
:10174000807C07C03E01F00F807807C03E01F00F9B
:1017500080F807C000007C7C07FDF03FF781FFFEAA
:101760000FE3F83E07E1F80F87C03C1E00F0F803D6
:10177000C3E01F0F80783E03E0F81F83F0FE07FFF1
:10178000F81FFFC03FEF003E7C0001F00007C3E000
:101790003E0F80F83F0FC07FFE00FFF000FE00000C
:1017A00003E0007C0007C0007C0007C0007C000F45
:1017B0008000F8F80FBFE0FFFF0FFFF1FC3F1F8133
:1017C000F1F01F1F01F1E01F3E03E3E03E3E03E3A3
:1017D000E03E7C03E7C07C7C07C7C07C7C07CF80F1
:1017E0007807C1F07C3E000000003E1F07C1F07C7E
:1017F0001F0F83E0F83E0F87C1F07C1F07C3E0F89E
:101800003E00003E007801F003E000000000000010
:101810007C00F801F003E00F801F003E007C00F820
:1018200003E007C00F801F003C00F801F003E00751
:10183000C01F003E007C00F803F01FC03F807E0107
:10184000F00007C0003E0001F0000F8000780007A4
:10185000C0003E0001F03E0F83E0F83E07C7E03EC7
:101860007E01F7E00FFE00FFE007FF003FFC01FFF5
:10187000E00FDF00FCFC07C3E03E1F01F0FC0F831C
:10188000E0F81F87C0FC0007C1F07C3E0F83E0F842
:101890003E1F07C1F07C1F0F83E0F83E0F87C1F0A9
:1018A0007C1F07C3E0F83E000F8F83F03EFF3FE050
:1018B000F7FFFFC7FFFFFF1FC7F87C7C0F81F1F028
:1018C0003E07CF81F03E3E07C0F8F81F03E3E07CFF
:1018D0000F8F81F03E7C0F81F1F03E07C7C0F81FEB
:1018E0001F03E07C7C0F81E3E07C0F8F81F03E00E2
:1018F0000F8F80FBFE0FFFF1FFFF1FC3F1F81F1FCB
:1019000001F1F01F3E01F3E03E3E03E3E03E3C0305
:10191000E7C03E7C07C7C07C7C07C7807CF8078097
:1019200000FE007FF03FFF0FFFE3F8FE7C0FDF00BB
:10193000FBE01FF803FF007FE01FFC03EF807DF852
:101940001F3F07E3FFF87FFE07FF003F800003E72C
:10195000E00FBFC07DFF81FFFE07F0FC1F81F07C20
:1019600007C3E01F0F807C3E01F0F007C3C03E1F9D
:1019700000F87E07C1FC7F07FFF81FFFC0FBFE03D6
:10198000E7E00F80003E0000F00007C0001F0000ED
:101990007C0001F0000F80000001F1F07FDF0FFDFF
:1019A000F1FFFE3F8FE3E07E7C03E7C03EF803CF0C
:1019B000803CF807CF807CF80F8F81F8FC3F87FFD1
:1019C000F87FFF83FFF01F9F0001F0001F0001F070
:1019D000003E0003E0003E0003E0003E000F8E1FCB
:1019E0007C3FF0FFE1FC03F007C00F803E007C006D
:1019F000F801F003E00F801F003E007C00F003E0E0
:101A00000001FC01FFC0FFF87FFF3F0FCF81F3F023
:101A100000FF803FFC07FFC07FF803FE001FBE03EE
:101A2000EFC1FBFFFC7FFE0FFF00FE000F81F07C8B
:101A30000F81F0FFBFF7FE3E07C0F83E07C0F81F5A
:101A400003E0F81F03E07F0FE1FC1F801F01F1F0AE
:101A50001F3E03E3E03E3E03E3E03E3E03E7C07C7F
:101A60007C07C7C07C7C07C7C07CF80F8F81F8F863
:101A70003F8FFFF8FFFF07FDF03F1F00F80FFE0349
:101A8000EF81F3E07CF83E3E0F8F87C1E1F078F8FC
:101A90001E3E079F01F7807FE01FF003FC00FE0061
:101AA0003F800FC003F000F81F07FF03E0FBE0FCDE
:101AB0001F7C1F87CF87F0F9F0FE3E3E3DC7C3C7AE
:101AC000B9F079E73E0F3CE781EF1DF03DE3BC073D
:101AD000BC7F80FF0FE01FE1FC03F83F007F07E0C1
:101AE0000FC0F801F81F00000FC1F83F07C07C3E8F
:101AF00001F9F803EFC00FBE001FF0007F8001FC6A
:101B00000003E0001FC000FF0007FE003EF801FBDD
:101B1000F007C7C03E1F81F87E0FC0F8001F807C11
:101B20003E03E0F80F03E07C0F81E03E0F80F83CBD
:101B300003E1F00787801F3E007CF001F7C007DE5D
:101B4000001FF0007FC001FE0003F8000FC0003F3F
:101B50000000F80003E0001F0000F8001FE0007F15
:101B60000001F8000F8000000FFFE1FFFC3FFF873E
:101B7000FFE000FC003F000FC003F001FC007E000E
:101B80001F8007E001F8007E001F8007FFF8FFFFBD
:101B90001FFFE3FFFC00007C03F01FC0FE03E00F0B
:101BA000003C00F007801E007801E00F803C01F04F
:101BB0001F807001F801E007801E007803C00F004D
:101BC0003C00F007801E007801FC07E00F801E003B
:101BD0000381C0C0E070381C0C0E070381C0C0E058
:101BE0007038181C0E07038181C0E07038181C0E75
:101BF00007018080000001E007C01F80FE0078011F
:101C0000E007803C00F003C00F007801E007801E71
:101C1000007E003807E03E00F007C01E007801E0BB
:101C200007803C00F003C01F01F80FE03F00F80000
:101C30000F001FC1DFF0EE3FE607F001E0000000FB
:101C400000003E5B4F5B3E3E6B4F6B3E1C3E7C3E5E
:101C50001C183C7E3C181C577D571C1C5E7F5E1C6C
:101C600000183C1800FFE7C3E7FF0018241800FF26
:101C7000E7DBE7FF30483A060E2629792926407F20
:101C8000050507407F05253F5A3CE73C5A7F3E1C2F
:101C90001C08081C1C3E7F14227F22145F5F005F1B
:101CA0005F06097F017F006689956A6060606060F9
:101CB00094A2FFA29408047E040810207E2010083D
:101CC000082A1C08081C2A08081E101010100C1ED8
:101CD0000C1E0C30383E3830060E3E0E060000005A
:101CE000000000005F00000007000700147F147F61
:101CF00014242A7F2A12231308646236495620507E
:101D00000008070300001C2241000041221C002A99
:101D10001C7F1C2A08083E08080080703000080854
:101D2000080808000060600020100804023E5149C5
:101D3000453E00427F400072494949462141494D94
:101D4000331814127F1027454545393C4A4949311B
:101D500041211109073649494936464949291E009A
:101D60000014000000403400000008142241141444
:101D7000141414004122140802015909063E415D61
:101D8000594E7C1211127C7F494949363E414141EE
:101D9000227F4141413E7F494949417F090909016B
:101DA0003E414151737F0808087F00417F41002078
:101DB00040413F017F081422417F404040407F0264
:101DC0001C027F7F0408107F3E4141413E7F09098C
:101DD00009063E4151215E7F091929462649494994
:101DE0003203017F01033F4040403F1F2040201F3E
:101DF0003F4038403F6314081463030478040361D0
:101E000059494D43007F41414102040810200041DF
:101E100041417F040201020440404040400003076A
:101E2000080020545478407F2844443838444444BF
:101E300028384444287F385454541800087E090236
:101E400018A4A49C787F0804047800447D400020F6
:101E500040403D007F1028440000417F40007C044A
:101E60007804787C080404783844444438FC182406
:101E7000241818242418FC7C0804040848545454DA
:101E80002404043F44243C4040207C1C2040201C6F
:101E90003C4030403C44281028444C9090907C4476
:101EA00064544C44000836410000007700000041B3
:101EB00036080002010204023C2623263C1EA1A192
:101EC00061123A4040207A38545455592155557979
:101ED0004122545478422155547840205455794039
:101EE0000C1E52721239555555593954545459399A
:101EF000555454580000457C410002457D42000184
:101F0000457C407D1211127DF0282528F07C545527
:101F100045002054547C547C0A097F493249494980
:101F2000323A4444443A324A4848303A4141217AAC
:101F30003A42402078009DA0A07D3D4242423D3D76
:101F40004040403D3C24FF2424487E4943662B2FDB
:101F5000FC2F2BFF0929F620C0887E09032054544A
:101F600079410000447D413048484A32384040229F
:101F70007A007A0A0A727D0D19317D2629292F28C7
:101F8000262929292630484D402038080808080805
:101F9000080808382F10C8ACBA2F102834FA0000EF
:101FA0007B000008142A142222142A140855005514
:101FB0000055AA55AA55AAFF55FF55FF000000FF7E
:101FC00000101010FF00141414FF001010FF00FF89
:101FD0001010F010F0141414FC001414F700FF009B
:101FE00000FF00FF1414F404FC141417101F101049
:101FF0001F101F1414141F00101010F00000000018
:102000001F101010101F10101010F010000000FF13
:10201000101010101010101010FF10000000FF140E
:102020000000FF00FF00001F10170000FC04F41464
:10203000141710171414F404F40000FF00F714141C
:102040001414141414F700F7141414171410101F98
:10205000101F141414F4141010F010F000001F10CE
:102060001F0000001F14000000FC140000F010F01E
:102070001010FF10FF141414FF141010101F000094
:102080000000F010FFFFFFFFFFF0F0F0F0F0FFFFA7
:10209000FF0000000000FFFF0F0F0F0F0F38444438
:1020A0003844FC4A4A4A347E02020606027E027E18
:1020B0000263554941633844443C04407E201E205D
:1020C00006027E020299A5E7A5991C2A492A1C4C02
:1020D0007201724C304A4D4D303048784830BC6205
:1020E0005A463D3E494949007E0101017E2A2A2A7D
:1020F0002A2A44445F444440514A444040444A519F
:10210000400000FF0103E080FF000008086B6B083F
:102110003612362436060F090F0600001818000084
:10212000001010003040FF0101001F01011E0019C6
:102130001D1712003C3C3C3C000000000000000069
:102140000800020100000304070000000000000076
:102150000001020408102040800102040810200140
:10216000020408102004040404040404040202020B
:1021700002020203030303030300000000230026FE
:1021800000290000000000250028002B00000000AE
:1021900000240027002A00006D171519B528112406
:1021A0001FBECFEFD8E0DEBFCDBF16E0A0E0B1E0AC
:1021B000E4ECF3E602C005900D92A235B107D9F721
:1021C00028E0A2E5B6E001C01D92AF32B207E1F708
:1021D00011E2CEE9D1E204C02297FE010E949F2FB6
:1021E000C839D107C9F70E94A02B0C94E0310C9498
:1021F000000083E996E00E940B2340E550E060E098
:1022000070E08EE897E00E94132B26E040E056E94C
:1022100060E070E08EE897E00E94F12721E04CE357
:1022200062E083E996E00E94862383E996E00E94BB
:10223000BB2462E083E996E00E949B1F61E070E0AE
:1022400083E996E00E94A11F40E050E060E070E06A
:1022500083E996E00E94951F6FE175E083E996E0BF
:102260000E94612983E996E00E94BB2460EA7FE036
:1022700080E090E00E94BB2562E085E00E94762627
:1022800061E084E00E94762660E084E00C94AF2652
:102290004F925F926F927F928F929F92AF92BF9276
:1022A000CF92DF92EF92FF92CF93DF93CDB7DEB75D
:1022B00028970FB6F894DEBF0FBECDBF682F70E031
:1022C00080E090E00E94B22C20E030E04CE452E448
:1022D0000E94192C6B017C0120E030E040EC50E4BE
:1022E0000E94CB2D4B015C0120E030E040EA50E43D
:1022F000C701B6010E94CB2D2B013C0120E030E04C
:1023000040E850E4C701B6010E94CB2D69837A836F
:102310008B839C8320E030E040E450E4C701B601A9
:102320000E94CB2D6D837E838F83988727E137EBC7
:1023300041E15EE3C501B4010E94682D4B015C01DF
:102340002BE63AE94FE150E4C301B2010E94682D47
:102350009B01AC01C501B4010E94B02B4B015C0193
:102360002DE232EB4EE851E469817A818B819C81C8
:102370000E94682D9B01AC01C501B4010E94B12BE4
:102380004B015C0120E635E649E852E46D817E812F
:102390008F8198850E94682D9B01AC01C501B40115
:1023A0000E94B02B4B015C01A7019601C701B60149
:1023B0000E94682D24EA30EB4AE153E40E94682D24
:1023C0009B01AC01C501B4010E94B12B4B015C0122
:1023D00020E030EC48E653E4C701B6010E94682DC6
:1023E0009B01AC01C501B4010E94B02B28EB3EE17A
:1023F0004EE853E40E94B12B20E030E040E052E48C
:102400000E94B02B20E030E040EA50E40E94682DAA
:1024100020E030E040E151E40E94192C28960FB6EC
:10242000F894DEBF0FBECDBFDF91CF91FF90EF904C
:10243000DF90CF90BF90AF909F908F907F906F90E4
:102440005F904F900895CF93DF93CDB7DEB760973D
:102450000FB6F894DEBF0FBECDBFFE013196DE0190
:1024600051965E2F9F2F282F217030E021933193BA
:102470008695EA17FB07B9F7660F771FE52FF92F47
:10248000E60FF71F81E020813181442319F0232BCF
:1024900021F002C0232B09F480E060960FB6F89477
:1024A000DEBF0FBECDBFDF91CF91089580916C0646
:1024B00090E0A0E0B0E0BA2FA92F982F88272091B4
:1024C0006B06820F911DA11DB11DBC01882777FDF0
:1024D0008095982F0E94B42C2DEC3CEC4CE450E4F9
:1024E0000E94682D20E030E04AE754E40E94192C55
:1024F0000E94812CCB010895CF92DF92EF92FF9240
:10250000CF93DF9380915A060E9448116B017C01A2
:10251000C0910A01D0910B01BE01882777FD8095FB
:10252000982F0E94B42C9B01AC01C701B6010E94F8
:10253000152C87FD1AC0C0910801D0910901BE0178
:10254000882777FD8095982F0E94B42C9B01AC01C1
:10255000C701B6010E94642D18163CF0C701B601F0
:102560000E94812C262F972F02C02C2F9D2F822F67
:10257000DF91CF91FF90EF90DF90CF900895CF92B1
:10258000DF92EF92FF92CF93DF9380915B060E94E0
:1025900048116B017C01C0910A01D0910B01BE0171
:1025A000882777FD8095982F0E94B42C9B01AC0161
:1025B000C701B6010E94152C87FD1AC0C091080101
:1025C000D0910901BE01882777FD8095982F0E9440
:1025D000B42C9B01AC01C701B6010E94642D1816F2
:1025E0003CF0C701B6010E94812C262F972F02C014
:1025F0002C2F9D2F822FDF91CF91FF90EF90DF90B6
:10260000CF900895CF92DF92EF92FF9260915F0694
:1026100070E080E090E00E94B22C20E030E048ECD6
:1026200051E40E94B02B2CE53FE842E050E40E94C8
:10263000192C6B017C0120E030E0A9010E94642D7F
:1026400020E030E040E05FE387FD09C0C701B6014C
:102650000E94B12B0E94812C77FF0DC025C0C701BD
:10266000B6010E94B02B0E94812C77FD1DC06536FB
:102670007105ECF417C020E030E040E05FE3C701F3
:10268000B6010E94B12B0E94812C653671057CF445
:1026900020E030E040E05FE3C701B6010E94B12BCB
:1026A0000E94812CCB0105C080E090E002C084E64E
:1026B00090E0FF90EF90DF90CF9008952091610619
:1026C000822F90E0A0E0B0E02227382F492F5A2F28
:1026D00080916006280F311D411D511D6AEA70E48A
:1026E0008CE190E00E947E2FC90137FD07C0893F31
:1026F0002AE292072CF088EF9AE2089580E090E0B9
:102700000895CF92DF92EF92FF920F931F93CF9392
:10271000DF930E945E138C010E945612EC01B801F7
:1027200080E090E00E94B22C6B017C01BE01882702
:1027300077FD8095982F0E94B42C9B01AC01C701B6
:10274000B6010E94682D20E030E046E954E40E9482
:10275000192CDF91CF911F910F91FF90EF90DF9097
:10276000CF9008958F929F92AF92BF92CF92DF92B7
:10277000EF92FF92F0906A06FF2009F44EC00E948B
:1027800081134B015C016F2D70E080E797E10E949F
:10279000342F80E090E00E94B22C6B017C0180918C
:1027A0000C0190910D0164E670E00E94482F88278B
:1027B00077FD8095982F0E94B42CA50194010E946A
:1027C000682D9B01AC01C701B6010E94682D20E075
:1027D00030E04AE754E40E94192C20E030E040E861
:1027E00050E40E94682D6B017C0120E030E0A901DB
:1027F0000E94152C87FD11C020E030E048E452E42F
:10280000C701B6010E94642D181654F4C12CD12CB6
:1028100078E4E72E72E4F72E03C0C12CD12C7601A8
:10282000C701B601FF90EF90DF90CF90BF90AF90BF
:102830009F908F9008950F931F93CF93DF93609194
:10284000730670E080E090E00E94B42C20E030E05D
:1028500040ED51E40E94682D20E030E047E853E469
:102860000E94192C8B01D82FC92F20E030E040E9BD
:1028700051E40E94642D181624F400E010E0D0E921
:10288000C1E4B8018D2F9C2FDF91CF911F910F9143
:10289000089540E065E070E0809181060E94231277
:1028A00091E0811101C090E0892F089540E067E038
:1028B00070E0809171060E94231291E0811101C0A5
:1028C00090E0892F08956091720670E080E090E0BA
:1028D0000E94B22C21EA30EA40EA5CE30E94682DB3
:1028E000089540E065E070E0809171060E94231237
:1028F00091E0811101C090E0892F0895CF92DF927D
:10290000EF92FF920F931F93CC24C394D12CF0E449
:10291000EF2EF12C00E810E026E031E040E050E03E
:1029200060E070E083E996E00E948C1C83E996E009
:102930001F910F91FF90EF90DF90CF900C94BB24EC
:10294000CF93DF938EE00E943026EC0166E075E0C5
:1029500083E996E00E94AA1F4EE150E060E070E03B
:1029600083E996E00E94951F61E083E996E00E946A
:102970009B1F6FE275E083E996E00E9461294EE3B8
:1029800050E060E070E083E996E00E94951FBE0190
:10299000882777FD8095982F0E94B42C20E030E0A6
:1029A00040EA50E40E94682D20E030EC4FE754E408
:1029B0000E94192C9B01AC010E94B12B20E030E059
:1029C00040E251E40E94B12BAB01BC0122E030E0B7
:1029D00083E996E00E94012B83E996E00E94BB24E4
:1029E00060E070E083E996E00E94AA1F60E570E075
:1029F00080E090E0DF91CF910C94BB25CF92DF92E5
:102A0000EF92FF920E9463146B017C0161E070E021
:102A100083E996E00E94A11F66E075E083E996E0F5
:102A20000E94AA1F4EE150E060E070E083E996E06A
:102A30000E94951F61E083E996E00E949B1F63E37B
:102A400075E083E996E00E94612961E083E996E000
:102A50000E949B1F4EE350E060E070E083E996E047
:102A60000E94951F20E030E040E450E4C701B60129
:102A70000E94682D20E034E244E759E40E94682D6A
:102A800020E034E244E759E40E94192C20E030E0D1
:102A900040E85FE30E94B02BAB01BC0121E030E0D5
:102AA00083E996E00E94012B60E070E083E996E004
:102AB0000E94AA1F83E996E00E94BB2460E570E0B3
:102AC00080E090E0FF90EF90DF90CF900C94BB25DA
:102AD00061E083E996E00E949B1F61E070E083E97A
:102AE00096E00E94A11F40E050E060E070E083E9C2
:102AF00096E00E94951F69E375E083E996E00E94E5
:102B000061296FE475E083E996E00E94612965E63A
:102B100075E083E996E00E94612961E875E083E948
:102B200096E00E94612967E975E083E996E00E94DA
:102B3000612983E996E00C94BB24CF92DF92EF9257
:102B4000FF92CF93DF93EC016A017B0183E996E06A
:102B50000E940B2361E083E996E00E949B1F61E0E5
:102B600070E083E996E00E94A11F66E075E083E9CA
:102B700096E00E94AA1F4EE150E060E070E083E919
:102B800096E00E94951FBE0183E996E00E944F29BE
:102B900061E083E996E00E949B1F4EE350E060E015
:102BA00070E083E996E00E94951F21E030E0B701D4
:102BB000A60183E996E00E94FF2A83E996E00E943D
:102BC000BB2460E070E083E996E00E94AA1F6AE0FF
:102BD00070E080E090E0DF91CF91FF90EF90DF9088
:102BE000CF900C94BB250F931F93CF93DF938C0151
:102BF000EB0183E996E00E940B2361E083E996E014
:102C00000E949B1F66E075E083E996E00E94AA1F80
:102C100061E070E083E996E00E94A11F4EE150E080
:102C200060E070E083E996E00E94951FB80183E9B7
:102C300096E00E944F2961E083E996E00E949B1F85
:102C40004EE350E062E370E083E996E00E94951F56
:102C500041E050E0BE0183E996E00E940C2A83E93E
:102C600096E00E94BB2460E070E083E996E00E9459
:102C7000AA1F6AE070E080E090E0DF91CF911F91A1
:102C80000F910C94BB250F931F93CF93DF938C016F
:102C9000EB0183E996E00E940B2361E083E996E073
:102CA0000E949B1F66E075E083E996E00E94AA1FE0
:102CB00061E070E083E996E00E94A11F4EE150E0E0
:102CC00060E070E083E996E00E94951FB80183E917
:102CD00096E00E944F2961E083E996E00E949B1FE5
:102CE0004EE350E060E070E083E996E00E94951FBB
:102CF00041E050E0BE0183E996E00E940C2A83E99E
:102D000096E00E94BB2460E070E083E996E00E94B8
:102D1000AA1F6AE070E080E090E0DF91CF911F9100
:102D20000F910C94BB25CF92DF92EF92FF92CF933D
:102D3000DF9300D000D000D0CDB7DEB785E00E9491
:102D4000E52621E0892B09F420E02093920680916A
:102D50009106281759F0211109C080918F06909192
:102D6000900601969093900680938F06209391068B
:102D700020918F0630919006809106019091070175
:102D80002817390721F41092900610928F06E091CF
:102D90008F06F0919006EE30F10508F091C0EC5CE2
:102DA000FF4F0C949D2F83E996E00E940B230E9415
:102DB0007E1486C00E944914F82E6BEB75E053C058
:102DC00083E996E00E940B230E94A01479C00E9420
:102DD0007C127C016FEB75E005C00E94BF127C0184
:102DE00063EC75E0CE0101960E94872BB70188271E
:102DF00077FD8095982F0E94B42CAB01BC014AC08E
:102E00000E9402137C0167EC75E005C00E945E130E
:102E10007C016BEC75E0CE0101960E94872BB70117
:102E2000CE0101960E94431639C060916A0670E097
:102E300080E090E00E94B22C6B017C0162ED75E0B5
:102E400023C00E94B2136B017C0167ED75E01CC0CA
:102E50000E945614F82E6DED75E005C00E947114A5
:102E6000F82E62EE75E0CE0101960E94872B6F2D41
:102E700070E0CE0101960E94F31510C00E941B1451
:102E80006B017C0166EE75E0CE0101960E94872BF6
:102E9000B701A601CE0101960E949D15CE010196B3
:102EA0000E94192B0DC083E996E00E940B230E941B
:102EB000FE1406C083E996E00E940B230E94681569
:102EC00026960FB6F894DEBF0FBECDBFDF91CF912F
:102ED000FF90EF90DF90CF90089564E083E996E053
:102EE0000C94F2228091520690915306A0915406C0
:102EF000B09155064091560650915706609158067C
:102F000070915906841B950BA60BB70B853F91401A
:102F1000A105B10548F160E18EE897E00E948C2799
:102F20008EE897E00E940E27892B51F08EE897E0FB
:102F30000E9427278D3C910519F481E080938E062D
:102F40008EE897E00E946A2780915206909153067E
:102F5000A0915406B091550680935606909357065B
:102F6000A0935806B09359060895CF93DF93CAE50E
:102F7000D6E08EE897E00E940E27892B29F08EE894
:102F800097E00E9427278883219686E0CE38D807CD
:102F900081F78EE897E00E946A27E0918E07F09112
:102FA0008F070280F381E02D41E050E06EEE75E086
:102FB0008EE897E0DF91CF9109940F931F930E94C1
:102FC0008C25609352067093530680935406909319
:102FD000550620918E06211104C01F910F910C946B
:102FE000721700915606109157062091580630919D
:102FF0005906DC01CB01801B910BA20BB30B899707
:10300000A105B10590F00E94B517809152069091EC
:103010005306A0915406B09155068093560690939E
:103020005706A0935806B09359061F910F91089523
:103030000E94DD170C949316CF93CFB7F89480912C
:10304000C406811127C0EFE6F1E28491EBE5F1E2DD
:103050009491E82FF0E0EE0FFF1FE357FE4DA5918E
:10306000B4918C91892321F461E08AE00E94AF261B
:1030700061E08AE00E9476268CB580618CBD8CB5BB
:1030800080648CBD61E08DE00E94762661E08BE07B
:103090000E9476268091C4068F5F8093C406CFBFBE
:1030A000CF9108958091F50690E02091F606821B5D
:1030B000910908952091F6068091F506281750F49D
:1030C000E22FF0E0E950F94F808190E02F5F2093EC
:1030D000F60608958FEF9FEF0895E091F606809130
:1030E000F506E81730F4F0E0E950F94F808190E000
:1030F00008958FEF9FEF08950895CF92DF92EF929A
:10310000FF920F931F93CF93DF937C01CB018A0132
:103110002091D106222389F0EB016B01C40ED51E4C
:10312000CC15DD0569F06991D701ED91FC91019015
:10313000F081E02DC7010995F3CF642F0E948E190D
:10314000C801DF91CF911F910F91FF90EF90DF9019
:10315000CF900895CF93DF931F92CDB7DEB76983E9
:103160002091D1062223D1F02091D206203240F0C6
:1031700021E030E0FC013383228380E090E015C041
:103180008091D306E82FF0E0EC52F94F99819083BB
:103190008F5F8093D3068093D20605C061E0CE0195
:1031A00001960E948E1981E090E00F90DF91CF91FF
:1031B0000895FC011382128248EE53E060E070E053
:1031C000448355836683778384EF95E0918380837E
:1031D00008951092F6061092F5061092D3061092FA
:1031E000D2060C94191981E08093D1066093F406FD
:1031F0001092D3061092D20608950C94F3180F93F0
:10320000062F21E04091D20664ED76E08091F4062D
:103210000E9437191092D3061092D2061092D1064E
:103220000F91089561E00C94FF1885EC96E00C94E2
:10323000D9181092840781E0809382071092810749
:1032400061E082E10E94AF2661E083E10E94AF2647
:10325000E9EBF0E080818E7F808380818D7F8083A9
:1032600088E48093B80085E48093BC0008950F93B0
:10327000413208F04AC0909184079111FCCF92E04E
:1032800090938407009382079FEF90931707109203
:103290005C0740935B07FB016DE577E0DB019A2F4C
:1032A000961B941718F491919D93F9CF1092830770
:1032B00090918307880F892B8093830780918107E2
:1032C000813061F410928107809183078093BB0065
:1032D0008091BC0083FDF8CF85EC01C085EE809322
:1032E000BC00222321F0809184078230E1F3809199
:1032F00017078F3F61F080911707803251F080915E
:103300001707803341F483E007C081E005C080E007
:1033100003C082E001C084E00F910895613298F407
:1033200020918407243089F460933907FC018BE3F2
:1033300097E0DC012A2F281B261718F421912D93E2
:10334000F9CF80E0089581E0089582E0089585ED49
:103350008093BC008091BC0084FDFCCF1092840758
:10336000089585EC8093BC001092840708951F9205
:103370000F920FB60F9211242F933F934F935F93A9
:103380006F937F938F939F93AF93BF93EF93FF932D
:103390008091B900887F803609F49EC078F5883224
:1033A00009F45DC090F4803109F456C038F48823E4
:1033B00009F4F5C0883009F44FC0F5C0883109F42C
:1033C0004EC0803209F45FC0EEC0803409F46AC098
:1033D00058F4803309F457C0883309F0E4C080936F
:1033E00017070E94B119DFC0803509F44FC0883536
:1033F00009F45DC0883409F0D6C0D3C0883909F417
:10340000C4C0A8F4883709F467C038F4883609F4D2
:1034100063C0803709F460C0C6C0883809F4B5C0FD
:10342000803909F45FC0803809F0BDC05BC0803BC3
:1034300009F483C038F4803A09F466C0883A09F484
:103440007CC0B1C0803C09F4A4C0883C09F4A1C090
:10345000883B09F487C0A7C08091830710C0909172
:103460005C0780915B07981770F5E0915C0781E03D
:103470008E0F80935C07F0E0E35AF84F80818093D1
:10348000BB0085EC83C0809317078BC0E0915C077D
:1034900081E08E0F80935C078091BB00F0E0E35ADF
:1034A000F84F808390915C0780915B076BC0E0913F
:1034B0005C0781E08E0F80935C078091BB00F0E099
:1034C000E35AF84F80838091820781116AC081E0BE
:1034D0008093810784EA5EC083E080938407109222
:1034E0001807CFCF80911807803208F04EC0E091C6
:1034F000180781E08E0F809318078091BB00F0E0E1
:10350000E75EF84F8083BDCF0E94B1198091180704
:10351000803230F4E0911807F0E0E75EF84F108257
:103520006091180770E0E0917D07F0917E0789E1D6
:1035300097E009951092180736C084E080938407BD
:1035400010923A0710923907E0917F07F0918007B7
:10355000099580913907811105C081E08093390771
:1035600010923B07E0913A0781E08E0F80933A0773
:10357000F0E0E55CF84F80818093BB0090913A07C2
:1035800080913907981708F47CCF85E88093BC00B8
:103590000AC085EC8093BC001092840704C010928E
:1035A00017070E94A719FF91EF91BF91AF919F91CB
:1035B0008F917F916F915F914F913F912F910F90DC
:1035C0000FBE0F901F9018952F923F924F925F92CF
:1035D0006F927F928F929F92AF92BF92CF92DF9223
:1035E000EF92FF920F931F93CF93DF9300D000D001
:1035F000CDB7DEB74C017C836B836A015901C801EA
:103600008701AC014C195D0957FF03C051954195E5
:10361000510995016B817C81261B370B37FF03C055
:1036200031952195310922242394312C2417350713
:1036300014F0212C312C2114310459F03A2D2B2D6A
:103640005C01832F922F3B812C81DC82CB82C32EA5
:10365000D22EAB81BC81AA16BB065CF43C2D2D2D6D
:103660006C01832F922F3B812C81BC82AB82A32ED5
:10367000B22E2501EB81FC814E1A5F0A3C016C18C9
:103680007D0877FE03C0719461947108720157FE42
:1036900003C0FFEFEF1AFF0AF594E794C816D906A6
:1036A0002CF421E030E03A83298324C06FEF7FEFD0
:1036B0007A8369831FC0D401ED91FC910480F58168
:1036C000E02D980121143104D9F04B815C81B601C1
:1036D000C4010995E618F708F7FE06C0E981FA81EA
:1036E000CE0EDF1EE40CF51C2B813C812F5F3F4F7B
:1036F0003C832B836B817C81A616B706E4F604C05D
:10370000A6016B817C81E4CF0F900F900F900F90FA
:10371000DF91CF911F910F91FF90EF90DF90CF90AD
:10372000BF90AF909F908F907F906F905F904F90E1
:103730003F902F9008956F927F928F929F92AF92B9
:10374000BF92CF92DF92EF92FF920F931F93CF938E
:10375000DF93EC015B016A0139014801E881F981DD
:103760000284F385E02D87010995E881F981A6019E
:10377000480D591D415051090284F385E02D9301F4
:10378000B501CE010995E881F9810084F185E02D2C
:103790009401A601B501CE010995E881F981B50131
:1037A000660D771D615071090084F185E02D94014B
:1037B000A601CE010995DF91CF911F910F91FF9046
:1037C000EF90DF90CF90BF90AF909F908F907F90C1
:1037D0006F900895EF92FF920F931F93DC01ED918C
:1037E000FC91240F351F215031090680F781E02D0F
:1037F000780189019B0109951F910F91FF90EF902E
:103800000895EF92FF920F931F93DC01ED91FC91CD
:10381000260F371F215031090680F781E02D7801EE
:103820008A0109951F910F91FF90EF9008956F9273
:103830007F928F929F92AF92BF92CF92DF92EF9240
:10384000FF920F931F93CF93DF935C014A016901AD
:103850003801EB01C60ED71ECC15DD0574F4D50179
:10386000ED91FC910084F185E02D87019301A40185
:10387000BE01C50109952196EFCFDF91CF911F9130
:103880000F91FF90EF90DF90CF90BF90AF909F90FF
:103890008F907F906F900895EF92FF920F931F93F8
:1038A000DC01ED91FC9111971A960D911C911B97DB
:1038B00018962D913C9119970684F785E02D7B0190
:1038C00040E050E060E070E009951F910F91FF909B
:1038D000EF9008950895FC011382128284E096E02F
:1038E0009183808375836483578346837187608760
:1038F00053874287158A158614861786168621E017
:10390000248B8FEF9FEF938B828B918B808B268BF9
:10391000178A118E108E08952F923F924F925F92C8
:103920006F927F929F92AF92BF92CF92DF92EF926F
:10393000FF920F931F93CF93DF93CDB7DEB72A97F4
:103940000FB6F894DEBF0FBECDBF5C017C836B83E6
:103950005E834D83190127013601C801079697FD43
:1039600007969C0193E0359527959A95E1F73A8360
:103970002983C12CD12CE12CF12CE414F5040CF09A
:1039800044C01A8619868D819E818E0D9F1D988751
:103990008F83E985FA85E017F1077CF589859A859B
:1039A00087709927892B11F0990C0EC0E985FA854B
:1039B000F7FD379683E0F595E7958A95E1F7EC0DED
:1039C000FD1DE20DF31D949097FE11C0D501ED9100
:1039D000FC910480F581E02D93014F8158856B8126
:1039E0007C8189859A85680F791FC5010995A9850C
:1039F000BA851196BA87A987CCCFFFEFEF1AFF0AD5
:103A000029813A81C20ED31EB8CF2A960FB6F894F8
:103A1000DEBF0FBECDBFDF91CF911F910F91FF9001
:103A2000EF90DF90CF90BF90AF909F907F906F907E
:103A30005F904F903F902F9008952F923F924F921A
:103A40005F926F927F928F929F92AF92BF92CF922E
:103A5000DF92EF92FF920F931F93CF93DF93CDB737
:103A6000DEB76A970FB6F894DEBF0FBECDBF1C015C
:103A700058874F831C870B87FA86E986CC82DC0146
:103A800058964D915C9159974115510509F0A6C082
:103A900018968D919C911997681779070CF056C16B
:103AA0001A968D919C911B97EF81F885E817F9077D
:103AB0000CF04CC1D12CCB013C81F6E03F9F800D36
:103AC000911D1124181619060CF040C1C60103E01F
:103AD000880F991F0A95E1F74F815885840F951F2C
:103AE000181619060CF032C157968C91811103C03B
:103AF000203B08F02F5F7E876D874B0119821DE305
:103B0000A12E1CE1B12EA61AB70A55E0259FA00CE4
:103B1000B11C11248981853039F0ED85FE85EA0DCF
:103B2000FB1D94919A8301C01A826F8078842301CF
:103B3000A8E0AD83BA81B0FF12C0D101ED91FC9134
:103B4000BC81B13031F40480F581E02D2B853C85BA
:103B500018C00684F785E02DEB84FC841DC0E98540
:103B6000FA852B853C85E217F307E1F0D101ED9151
:103B7000FC91BC81B13059F40480F581E02D298598
:103B80003A85A2016D857E85C10109950BC0068429
:103B9000F785E02DE984FA8486019601A301B4013A
:103BA000C1010995EA81E695EA83FD81F150FD8323
:103BB0006C0C7D1C2FEF421A520AF111BBCF3981D8
:103BC0003F5F39838C0C9D1C4D855E854F5F5F4F39
:103BD0005E874D87363009F09DCFB8C0FA01349624
:103BE0003491329785919491231BA7E02A9F800DF1
:103BF000911D1124FA0125913491398B288BFC01F8
:103C0000459154915A8F498FFC01329654915987AE
:103C10003196A491AF873196E491FC0135962491B9
:103C200031968491BC81B23050F0622E772467FCCB
:103C30007094E82FFF27E7FDF095FE87ED87FC8164
:103C4000CF2ED12C6C9C40016D9C900C7C9C900CD8
:103C50001124860E971EA12C1982DE8ACD8AAB0113
:103C6000420F511D27FD5A955E834D83AF81B88564
:103C7000A80FB11D87FDBA95B88FAF8B59818F857D
:103C8000581708F063C0852F90E02D853E85280FDA
:103C9000391F2C9DD0012D9DB00D3C9DB00D1124E0
:103CA000EF81F885EA0FFB1FFB83EA836D807E803E
:103CB0002401FA2D2D81F21BFA8B4F89588D480F64
:103CC000591F5C8B4B8B9A89960D862D2D81821BFB
:103CD00039858317B0F5977061F4898D9A8D0196B7
:103CE000E889F989298D3A8DE20FF31FB4909A8FF4
:103CF000898FB7FE1DC0D101ED91FC91BC81B1301F
:103D000059F40480F581E02D2B853C854B895C8935
:103D1000B301C10109950CC00684F785E02DEB8441
:103D2000FC84860196014A815B81B201C10109953B
:103D3000BB0CED89FE894E0E5F1EFFEF6F1A7F0AE6
:103D4000C2CFA30E49814F5F498398CF6A960FB6C1
:103D5000F894DEBF0FBECDBFDF91CF911F910F91C1
:103D6000FF90EF90DF90CF90BF90AF909F908F909B
:103D70007F906F905F904F903F902F900895AF92FB
:103D8000BF92CF92EF92FF920F931F93CF93DF9347
:103D9000EC01262F888D998D009709F042C06A307A
:103DA00069F42C898E859F8538E0239F800D911DB5
:103DB00011249F878E871D861C86ABC06D3009F449
:103DC000A8C08E898823C1F03C898C859D8546E0FA
:103DD000349F800D911D11244885598584179507BE
:103DE0005CF01D861C868E859F85E8E03E9F800DD9
:103DF000911D11249F878E87EA88FB88088919897D
:103E00004E855F856C857D85CC88CE010E941D1D09
:103E10002C898C859D85F6E02F9F800D911D1124A6
:103E200041C06A3079F41D861C864C89FC013696A7
:103E300084912E853F85489F200D311D11243F8799
:103E40002E8767C06D3009F464C0AC014C5F5F4FD2
:103E5000FA013491631708F45CC03196E491E617D7
:103E600008F457C0FA014491362F341BFC013296F6
:103E7000A590B490F7E03F9FA00CB11C1124F50170
:103E80003296A4913196E491AA2311F0E1110DC06C
:103E9000F5013496A4902C898C859D85A29E800D79
:103EA000911D11249D878C8734C0F5013596E491CE
:103EB0003E89332309F13C89B0E0AE0FB11DE7FD27
:103EC000BA953A9FA0013B9F500D11246C857D85CA
:103ED000460F571F68857985461757076CF01D8672
:103EE0001C86FC01369684914E855F85389F400D77
:103EF000511D11245F874E87EA88FB88088919893C
:103F00004E855F856C857D85CC88CE010E941D1D08
:103F1000BFCF81E090E0DF91CF911F910F91FF9093
:103F2000EF90CF90BF90AF900895FC0175876487A4
:103F3000578746870895611101C061E0FC01648BD9
:103F40000895FC01738B628B718B608B0895FC016B
:103F500085890895FC01808D918D6115710531F081
:103F6000892B59F486859785069605C0892B29F0FB
:103F700086859785069797878687718F608F0895C6
:103F8000FC01808591850895FC01828593850895C3
:103F90000F931F93CF93DF93EC018D89823061F0F3
:103FA0008330D9F0813009F0C8C0EC81FD81E41B79
:103FB000F50B3197DB0118C08C819D81DC01A61BBC
:103FC000B70BBD018E819F81FC01E41BF50BAF0196
:103FD00041505109621B730BB0C0AE81BF81A61B5B
:103FE000B70BA21BB30BFA01F7FD05C18C819D81B4
:103FF000E817F9070CF0FFC0B7FF04C02A0F3B1FFA
:10400000A0E0B0E08E819F81AD01420F531F841765
:1040100095071CF49C012A1B3B0B121613060CF08F
:10402000EAC0422F8A2F86958695869590E8899FCB
:10403000E00DF11D1124E25EFE4FA77069F158E01A
:104040005A1B852F90E0EC01CA5EDE4F6881251770
:1040500060F4DC01A21BB1098FEF90E00A2E02C0D0
:10406000959587950A94E2F768230130110539F098
:1040700048F00230110551F48081862706C0808106
:10408000862B03C06095808186238083451708F4C2
:10409000B2C0451BE058FF4F4830A0F10230110577
:1040A000A9F4DF01842F9C9190959C93A058BF4F59
:1040B00088508830C0F788EF840F8695869586955E
:1040C000B0E88B9FE00DF11D112419C081E0013093
:1040D000110509F080E0982F9195EF01842F9883C6
:1040E000C058DF4F88508830D0F788EF840F86950E
:1040F0008695869590E8899FE00DF11D1124E05882
:10410000FF4F4770442309F476C0A42FB0E0A25FAC
:10411000BE4F9C910130110541F050F00230110565
:1041200009F069C08081892706C08081892B03C07E
:1041300090958081892380835EC057FD5CC08E810D
:104140009F81481759070CF056C077FF04C0260F0F
:10415000371F60E070E08C819D81FB01E20FF31F4F
:104160008E179F071CF49C01261B370B1216130693
:104170000CF041C0CA0157FD0796E3E0959587957D
:10418000EA95E1F79695982F882797958795825E0F
:104190009E4F860F971F4770552761E070E001C062
:1041A000660F4A95EAF7462F0130110541F088F075
:1041B0000230110501F5FC01280F391F15C0FC0163
:1041C000280F391FE217F307B1F08081842B819308
:1041D000F9CF6095FC01280F391FE217F30759F05A
:1041E000808186238193F9CFE217F30721F0808144
:1041F00084278193F9CFDF91CF911F910F9108957B
:104200000F931F93CF93DF93FC018589823069F070
:104210008330E1F0813009F082C0C481D581C41BB4
:10422000D50BC21BD30BDB0117C084819581DC0148
:10423000A61BB70BBD016150710986819781DC0116
:10424000A41BB50BAD01421B530B69C0A681B781FE
:10425000A61BB70B1197EA01B7FD08C186819781AC
:10426000A817B9070CF002C1D7FF04C02C0F3D1FDF
:10427000C0E0D0E084819581AE01420F531F8417C6
:1042800095071CF49C012C1B3D0B121613060CF019
:10429000EDC0CD01B7FD079643E0959587954A950A
:1042A000E1F79695982F882797958795825E9E4F80
:1042B0008C0F9D1FA770BB2741E050E00A2E01C064
:1042C000440F0A94EAF7642F0130110549F098F081
:1042D0000230110509F0CAC0FC01280F391F17C0B0
:1042E000FC01280F391FE217F30709F4BFC08081D2
:1042F000862B8193F8CF4095FC01280F391FE217D8
:10430000F30709F4B3C0808184238193F8CFE217C7
:10431000F30709F4ABC0808186278193F8CF77FD3E
:10432000A5C084819581681779070CF09FC057FF5D
:1043300004C0240F351F40E050E086819781FA01C8
:10434000E20FF31F8E179F071CF49C01241B350BF3
:10435000121613060CF08AC0522F842F869586956C
:104360008695FB01B0E88B9FE00DF11D1124E25E04
:10437000FE4F477069F168E0641B862F90E0EC0106
:10438000CA5EDE4F4881261760F4DC01A21BB1092A
:104390008FEF90E00A2E02C0959587950A94E2F778
:1043A00048230130110539F048F00230110551F46D
:1043B0008081842706C08081842B03C04095808142
:1043C00084238083561708F451C0561BE058FF4FD2
:1043D0005830A0F102301105A9F4DF01852F9C911E
:1043E00090959C93A058BF4F88508830C0F788EFB5
:1043F000850F869586958695B0E88B9FE00DF11D1B
:10440000112419C081E00130110509F080E0982FD6
:104410009195EF01852F9883C058DF4F88508830E1
:10442000D0F788EF850F86958695869590E8899FC9
:10443000E00DF11D1124E058FF4F57705523B1F0E6
:10444000A52FB0E0A25FBE4F9C910130110539F05D
:1044500048F00230110551F48081892706C080811F
:10446000892B03C09095808189238083DF91CF9130
:104470001F910F910895CF92DF92EF92FF920F93C9
:104480001F93CF93DF937C018B01EA01690177FDD4
:10449000A0C00E94C01F081719070CF09AC0D7FDD2
:1044A00098C0C7010E94C41FC817D9070CF091C05B
:1044B000C7010E94A71F823009F07FC0F7018481E5
:1044C00095819C01201B310B8901015011098681C6
:1044D0009781FC01EC1BFD0BEF0121970BC0813094
:1044E00049F4F701848195818C1B9D0BE8018C01B7
:1044F00001501109F1E0CF16D10431F010F132E092
:10450000C316D104E1F165C0FE01D7FD379683E003
:10451000F595E7958A95E1F7F695FE2FEE27F79545
:10452000E795E00FF11FE25EFE4FC770DD2781E0E7
:1045300090E00C2E01C0880F0A94EAF79081982B26
:104540003AC0FE01D7FD3796A3E0F595E795AA9509
:10455000E1F7F695FE2FEE27F795E795E00FF11FAF
:10456000E25EFE4FC770DD2781E090E00C2E01C0B7
:10457000880F0A94EAF78095908198231CC0FE0169
:10458000D7FD379663E0F595E7956A95E1F7F695DF
:10459000FE2FEE27F795E795E00FF11FE25EFE4F45
:1045A000C770DD2781E090E00C2E01C0880F0A94CF
:1045B000EAF79081982790830CC0833009F08FCF61
:1045C000F70186819781801B910B8E01EC01219769
:1045D00091CFDF91CF911F910F91FF90EF90DF90DE
:1045E000CF9008951F93CF93DF93EC01162F40E4F3
:1045F00050E060E870E00E946B1C8CE196E09983CB
:1046000088838FEF8C8F88A38E8F8D8F1F8FDF9184
:10461000CF911F91089580E094E0EEE1F1E0DF0199
:104620009C011D9221503040E1F70895FC0181A1C9
:10463000882339F06EBD00000DB407FEFDCF8EB5A6
:10464000089588E090E030E8A4A1B5A14C9123A59D
:10465000209524232C93A2A1B3A122A5432F462366
:1046600021F04C91422B4C9304C04C912095242373
:104670002C93A4A1B5A12C9143A5242B2C93369562
:10468000019711F708951F93CF93DF93EC01162F35
:104690008C8D8F3F09F1EEA1FFA180819CA5892B14
:1046A0008083E8A5F9A590818DA5809589238083D5
:1046B000EEA1FFA190818CA5809589238083CE01F6
:1046C0000E941623EEA1FFA180819CA5892B8083E7
:1046D000DF91CF911F9108958A8D682F772767FD0D
:1046E000709585EC96E00E94FD1860E085EC96E000
:1046F0000E94AA18612F85EC96E00E94AA1885EC0A
:1047000096E0DF91CF911F910C9412190F931F9394
:10471000CF93DF93EC01162F022F6B8F4A8F8C8D76
:104720008F3F09F48CC061E08E8D0E94762661E097
:1047300088A10E94762688A1992787FD9095FC0183
:10474000EB59FE4DE491F0E0EE0FFF1FED57FE4DEB
:10475000259134913FA32EA3FC01EF5AFE4D849185
:104760008CA78E8D992787FD9095FC01EB59FE4D06
:10477000E491F0E0EE0FFF1FED57FE4D25913491CF
:1047800039A728A7FC01EF5AFE4D84918DA789A176
:10479000811134C061E08C8D0E94762661E08D8DA0
:1047A0000E9476268D8D992787FD9095FC01EB5907
:1047B000FE4DE491F0E0EE0FFF1FED57FE4D259109
:1047C00034913DA32CA3FC01EF5AFE4D84918BA79D
:1047D0008C8D992787FD9095FC01EB59FE4DE49156
:1047E000F0E0EE0FFF1FED57FE4D259134913BA3F6
:1047F0002AA3FC01EF5AFE4D84918AA789A1882340
:1048000011F10E941C188091C306882399F09FB76C
:10481000F8948091C306813059F48DB38093C1061A
:104820002DB38091C206809582238DBB9FBF02C0AD
:104830009093C10680E58CBD81E08DBD04C085EC00
:1048400096E00E94E9180023F1F08F8D87FD1BC0D0
:1048500061E00E94762661E08F8D0E94AF2661E0C4
:1048600070E080E090E00E94BB2560E08F8D0E94A8
:10487000AF266AE070E080E090E00E94BB2561E036
:104880008F8D0E94AF266EEACE010E94432365ED14
:10489000CE010E94432360E8CE010E94432368EAD0
:1048A000CE010E9443236FE3CE010E94432363EDB8
:1048B000CE010E94432360E0CE010E94432360E4C6
:1048C000CE010E9443236DE8CE010E9443231130A4
:1048D00011F460E101C064E1CE010E94432360E273
:1048E000CE010E94432360E0CE010E94432361EA8F
:1048F000CE010E94432368ECCE010E9443236AED5F
:10490000CE010E94432362E1CE010E94432361E86D
:10491000CE010E944323113011F46FE901C06FEC06
:10492000CE010E94432369EDCE010E944323113042
:1049300011F462E201C061EFCE010E9443236BEDEE
:10494000CE010E94432360E4CE010E94432364EA27
:10495000CE010E94432366EACE010E9443236EE209
:10496000CE010E9443236FEACE01DF91CF911F91C8
:104970000F910C944323DF92EF92FF920F931F93BA
:10498000CF93DF93EC0161E20E94432360E0CE010C
:104990000E9443236FE7CE010E94432362E2CE01CF
:1049A0000E94432360E0CE010E94432367E0CE01D2
:1049B0000E9443238C8D8F3F31F1EEA1FFA18081B6
:1049C0009CA5892B8083E8A5F9A580819DA5892BCD
:1049D0008083EEA1FFA190818CA58095892380839F
:1049E0000EE111E0F80161918F01CE010E941623C2
:1049F000F5E00E311F07B1F7EEA1FFA180819CA564
:104A0000892B808337C0D090B8008CE08093B800A9
:104A10000EE111E06A8D772767FD709585EC96E0D1
:104A20000E94FD18E091C506F091C6060190F08144
:104A3000E02D60E485EC96E00995E12CF12CF8017D
:104A4000EE0DFF1D608185EC96E00E94AA188FEFA5
:104A5000E81AF80AE0E1EE16F10489F785EC96E031
:104A60000E941219005F1F4FF5E00E311F0791F6EB
:104A7000D092B800DF91CF911F910F91FF90EF90EE
:104A8000DF9008951F920F920FB60F9211242F936B
:104A90003F938F939F93AF93BF938091860790919D
:104AA0008707A0918807B09189073091850723E097
:104AB000230F2D3720F40196A11DB11D05C026E856
:104AC000230F0296A11DB11D2093850780938607B1
:104AD00090938707A0938807B093890780918A07EE
:104AE00090918B07A0918C07B0918D070196A11D25
:104AF000B11D80938A0790938B07A0938C07B09386
:104B00008D07BF91AF919F918F913F912F910F9002
:104B10000FBE0F901F9018952FB7F89460918607DD
:104B20007091870780918807909189072FBF08951A
:104B30003FB7F89480918A0790918B07A0918C07DA
:104B4000B0918D0726B5A89B05C02F3F19F001969F
:104B5000A11DB11D3FBF6627782F892F9A2F620FA5
:104B6000711D811D911D42E0660F771F881F991FDF
:104B70004A95D1F708958F929F92AF92BF92CF92AC
:104B8000DF92EF92FF926B017C010E9498254B010E
:104B90005C01C114D104E104F104F1F00E94AF2BD7
:104BA0000E949825681979098A099B09683E734013
:104BB0008105910570F321E0C21AD108E108F108DE
:104BC00088EE880E83E0981EA11CB11CC114D1048C
:104BD000E104F10429F7DDCFFF90EF90DF90CF9053
:104BE000BF90AF909F908F900895789484B5826025
:104BF00084BD84B5816084BD85B5826085BD85B581
:104C0000816085BDEEE6F0E0808181608083E1E82F
:104C1000F0E0108280818260808380818160808367
:104C2000E0E8F0E0808181608083E1EBF0E080816A
:104C300084608083E0EBF0E0808181608083EAE73C
:104C4000F0E08081846080838081826080838081C5
:104C5000816080838081806880831092C100089584
:104C60008E3008F08E50877020911E0590E4299FA9
:104C700090011124822B80937C0080917A008064C3
:104C800080937A0080917A0086FDFCCF8091780035
:104C90002091790090E0922B0895833081F028F4E0
:104CA000813099F08230A1F008958730A9F08830E2
:104CB000B9F08430D1F4809180008F7D03C0809161
:104CC00080008F7780938000089584B58F7702C02D
:104CD00084B58F7D84BD08958091B0008F7703C027
:104CE0008091B0008F7D8093B0000895CF93DF93C3
:104CF00090E0FC01EF5AFE4D2491FC01EB59FE4D72
:104D00008491882349F190E0880F991FFC01E357B3
:104D1000FE4DA591B4918D579E4DFC01C591D49146
:104D20009FB7611108C0F8948C91209582238C93D1
:104D3000888182230AC0623051F4F8948C91322F1A
:104D4000309583238C938881822B888304C0F894C8
:104D50008C91822B8C939FBFDF91CF9108950F93FD
:104D60001F93CF93DF931F92CDB7DEB7282F30E08C
:104D7000F901E35CFE4D8491F901EF5AFE4D149167
:104D8000F901EB59FE4D04910023C9F0882321F06D
:104D900069830E944D266981E02FF0E0EE0FFF1F2E
:104DA000ED57FE4DA591B4919FB7F8948C91611188
:104DB00003C01095812301C0812B8C939FBF0F905E
:104DC000DF91CF911F910F910895CF93DF93282FFB
:104DD00030E0F901E35CFE4D8491F901EF5AFE4D9C
:104DE000D491F901EB59FE4DC491CC2391F081117E
:104DF0000E944D26EC2FF0E0EE0FFF1FE758FE4D0E
:104E0000A591B4912C912D2381E090E021F480E0D4
:104E100002C080E090E0DF91CF910895FC01818D88
:104E2000228D90E0805C9F4F821B91098F739927A0
:104E30000895FC01918D828D981731F0828DE80FD5
:104E4000F11D858D90E008958FEF9FEF0895FC018F
:104E5000918D828D981761F0828DDF01A80FB11DB1
:104E60005D968C91928D9F5F9F73928F90E00895D5
:104E70008FEF9FEF08958BEA98E2892B49F080E04D
:104E800090E0892B29F00E94AB2881110C9400003E
:104E90000895FC01848DDF01A80FB11DA35ABF4FF7
:104EA0002C91848D90E001968F739927848FA68929
:104EB000B7892C93A089B1898C9180648C93938D50
:104EC000848D981306C00288F389E02D80818F7D40
:104ED00080830895CF93DF93EC01888D8823C9F0F8
:104EE000EA89FB89808185FD05C0A889B9898C91F3
:104EF00086FD0FC00FB607FCF5CF808185FFF2CF8E
:104F0000A889B9898C9185FFEDCFCE010E944927F0
:104F1000E7CFDF91CF910895CF92DF92FF920F9369
:104F20001F93CF93DF931F92CDB7DEB76C0181E063
:104F3000D60158968C9358975B969C915B975C969C
:104F40008C915C97981307C05096ED91FC91519706
:104F5000808185FD2EC0F601038D10E00F5F1F4F8D
:104F60000F731127F02EF601848DF81211C00FB6C1
:104F700007FCF9CFD6015096ED91FC9151978081B5
:104F800085FFF1CFC60169830E9449276981EBCF74
:104F9000838DE80FF11DE35AFF4F6083D6015B96C6
:104FA0000C935B975296ED91FC91539780818062B0
:104FB0000CC0D6015696ED91FC91579760835096A0
:104FC000ED91FC91519780818064808381E090E035
:104FD0000F90DF91CF911F910F91FF90DF90CF90B5
:104FE0000895BF92CF92DF92EF92FF92CF93DF931B
:104FF000EC016A017B01B22EE889F98982E08083A5
:10500000411581EE580761057105A1F060E079E076
:105010008DE390E0A70196010E945C2F2150310999
:10502000410951095695479537952795211580E1F6
:10503000380798F0E889F989108260E874E88EE111
:1050400090E0A70196010E945C2F2150310941098F
:1050500051095695479537952795EC85FD85308301
:10506000EE85FF852083188EEC89FD89B082EA8960
:10507000FB89808180618083EA89FB8980818860E7
:105080008083EA89FB89808180688083EA89FB8943
:1050900080818F7D8083DF91CF91FF90EF90DF90B3
:1050A000CF90BF9008951F920F920FB60F921124C8
:1050B0002F938F939F93EF93FF93E0919E07F0912F
:1050C0009F078081E091A407F091A50782FD12C09F
:1050D00090818091A7078F5F8F732091A807821717
:1050E00051F0E091A707F0E0E257F84F958F8093D9
:1050F000A70701C08081FF91EF919F918F912F9120
:105100000F900FBE0F901F9018951F920F920FB621
:105110000F9211242F933F934F935F936F937F933D
:105120008F939F93AF93BF93EF93FF938EE897E096
:105130000E944927FF91EF91BF91AF919F918F916D
:105140007F916F915F914F913F912F910F900FBE83
:105150000F901F9018958EE897E00E940E2721E08F
:10516000892B09F420E0822F089510929107109264
:10517000900788EE93E0A0E0B0E0809392079093D0
:105180009307A0939407B093950784E396E09093D8
:105190008F0780938E0785EC90E090939B07809318
:1051A0009A0784EC90E090939D0780939C0780EC95
:1051B00090E090939F0780939E0781EC90E09093FE
:1051C000A1078093A00782EC90E09093A3078093BF
:1051D000A20786EC90E09093A5078093A407109215
:1051E000A7071092A8071092A9071092AA0708957E
:1051F000CF92DF92EF92FF920F931F93CF93DF93A3
:105200007C016A01EB0100E010E00C151D0571F056
:105210006991D701ED91FC910190F081E02DC701DA
:105220000995892B19F00F5F1F4FEFCFC801DF9150
:10523000CF911F910F91FF90EF90DF90CF90089545
:105240006115710581F0DB010D900020E9F7AD01DA
:1052500041505109461B570BDC01ED91FC91028036
:10526000F381E02D099480E090E00895DC01ED9158
:10527000FC91DB0114964D915C9115976D917C9199
:105280000280F381E02D0994DC01ED91FC91019005
:10529000F081E02D099460E476E00C9420290F93CE
:1052A0001F93CF93DF93EC010E9436298C01CE012E
:1052B0000E944B29800F911FDF91CF911F910F9179
:1052C00008950F931F93CF93DF93EC010E94202941
:1052D0008C01CE010E944B29800F911FDF91CF914D
:1052E0001F910F9108958F929F92AF92BF92DF927C
:1052F000EF92FF920F931F93CF93DF93CDB7DEB75B
:10530000A1970FB6F894DEBF0FBECDBF7C01F42F7E
:10531000D52ECB0119A2223008F42AE08E010F5DB0
:105320001F4F822E912CA12CB12C6F2F7D2DA5010A
:1053300094010E945C2FF22FD32ECA010150110953
:105340006A3014F4E0E301C0E7E3E60FD801EC9320
:10535000232B242B252B49F7B801C7010E942029B4
:10536000A1960FB6F894DEBF0FBECDBFDF91CF91EF
:105370001F910F91FF90EF90DF90BF90AF909F90A3
:105380008F900895CF92DF92EF92FF920F931F9329
:10539000CF93DF93EC016A017B012115310579F48C
:1053A000E881F9810190F081E02D642FDF91CF91A8
:1053B0001F910F91FF90EF90DF90CF9009942A30CA
:1053C0003105E9F477FF1AC06DE20E9444298C018F
:1053D00044275527BA014C195D096E097F092AE057
:1053E000CE010E947329800F911FDF91CF911F91F1
:1053F0000F91FF90EF90DF90CF9008952AE0B701D2
:10540000A601CE01DF91CF911F910F91FF90EF90F8
:10541000DF90CF900C9473299A01AB01662757FD5A
:105420006095762F0C94C2294F925F926F927F9273
:105430008F929F92AF92BF92CF92DF92EF92FF92A4
:105440000F931F93CF93DF93EC016A017B01B22E80
:105450009A01AB01C701B6010E94172E882319F0EB
:1054600063E476E027C026013701E89477F82FEF50
:105470003FEF4FE75FE7C301B2010E94172E811192
:105480000DC02FEF3FEF4FE75FE7C301B2010E946E
:10549000152C18161CF467E476E00CC02FEF3FEFD4
:1054A0004FE75FE4C701B6010E94642D1816ACF403
:1054B0006BE476E0CE01DF91CF911F910F91FF90C9
:1054C000EF90DF90CF90BF90AF909F908F907F90A4
:1054D0006F905F904F900C9420292FEF3FEF4FE794
:1054E0005FECC701B6010E94152C87FDE1CF20E0DB
:1054F00030E0A901C701B6010E94152C87FF0AC040
:105500006DE2CE010E9444298C01F7FAF094F7F87D
:10551000F09402C000E010E0A12C60E070E080E0B8
:105520009FE3AB1441F020E030E040E251E40E9400
:10553000192CA394F6CF9B01AC01C701B6010E94C0
:10554000B12B6B017C010E94862C2B013C010E9437
:10555000B22C9B01AC01C701B6010E94B02B6B01BC
:105560007C012AE0B301A201CE010E947329080F39
:10557000191FBB2039F06FE476E0CE010E9420298C
:10558000080F191F7B2C772041F120E030E040E22A
:1055900051E4C701B6010E94682D6B017C010E9495
:1055A000812C4B01AA2497FCA094BA2C2AE030E06D
:1055B000B501A401CE010E94C229080F191FC5011F
:1055C000B4010E94B42C9B01AC01C701B6010E943A
:1055D000B02B6B017C017A94D6CFC801DF91CF91BB
:1055E0001F910F91FF90EF90DF90CF90BF90AF9001
:1055F0009F908F907F906F905F904F9008950C9444
:10560000142A0F931F93CF93DF93EC010E94142A67
:105610008C01CE010E944B29800F911FDF91CF9109
:105620001F910F910895FC0144835583668377830E
:105630000895FC01808191810C943B30CF93DF93DE
:10564000EC0188819981009711F00E943B3019820A
:1056500018821D821C821B821A82DF91CF910895CD
:105660000F931F93CF93DF93EC018B016F5F7F4FFD
:10567000888199810E94CA30009731F0998388838C
:105680001B830A8381E001C080E0DF91CF911F91ED
:105690000F910895CF93DF93EC0188819981892B35
:1056A00029F08A819B818617970760F4CE010E94BA
:1056B000302B882341F08C819D81892B19F4E8815E
:1056C000F981108281E0DF91CF910895EF92FF92EE
:1056D0000F931F93CF93DF93EC017B018A01BA01F3
:1056E0000E944A2B811104C0CE010E941E2B07C0CC
:1056F0001D830C83B701888199810E94A231CE015C
:10570000DF91CF911F910F91FF90EF900895FC01D1
:105710001182108213821282158214826115710522
:1057200059F0FB0101900020E9F7AF014150510908
:10573000461B570B0C94662B08950E9494310895D4
:105740000E94F5250E949F2B0E94F910CBE3D7E21F
:105750000E9418182097E1F30E943B27F9CF089583
:105760005058BB27AA270ED075C166D130F06BD137
:1057700020F031F49F3F11F41EF45BC10EF4E0956C
:10578000E7FB51C1E92F77D180F3BA17620773079E
:105790008407950718F071F49EF58FC10EF4E0951B
:1057A0000B2EBA2FA02D0B01B90190010C01CA01DB
:1057B000A0011124FF27591B99F0593F50F4503E86
:1057C00068F11A16F040A22F232F342F4427585F78
:1057D000F3CF469537952795A795F0405395C9F790
:1057E0007EF41F16BA0B620B730B840BBAF0915048
:1057F000A1F0FF0FBB1F661F771F881FC2F70EC0E7
:10580000BA0F621F731F841F48F4879577956795B9
:10581000B795F7959E3F08F0B3CF9395880F08F0A2
:105820009927EE0F979587950895D9D008F481E0D0
:1058300008950CD00FC107D140F0FED030F021F414
:105840005F3F19F0F0C0511139C1F3C014D198F382
:105850009923C9F35523B1F3951B550BBB27AA27F1
:1058600062177307840738F09F5F5F4F220F331F63
:10587000441FAA1FA9F333D00E2E3AF0E0E830D02F
:1058800091505040E695001CCAF729D0FE2F27D032
:10589000660F771F881FBB1F261737074807AB0700
:1058A000B0E809F0BB0B802DBF01FF2793585F4F75
:1058B0002AF09E3F510568F0B6C000C15F3FECF38F
:1058C000983EDCF3869577956795B795F7959F5F3A
:1058D000C9F7880F911D9695879597F90895E1E08E
:1058E000660F771F881FBB1F621773078407BA07ED
:1058F00020F0621B730B840BBA0BEE1F88F7E09548
:10590000089504D06894B111D9C00895BCD088F02E
:105910009F5790F0B92F9927B751A0F0D1F0660F9B
:10592000771F881F991F1AF0BA95C9F712C0B130B6
:1059300081F0C3D0B1E00895C0C0672F782F8827C9
:10594000B85F39F0B93FCCF3869577956795B395F5
:10595000D9F73EF490958095709561957F4F8F4F64
:105960009F4F0895E89409C097FB3EF49095809569
:10597000709561957F4F8F4F9F4F9923A9F0F92F15
:1059800096E9BB279395F695879577956795B79593
:10599000F111F8CFFAF4BB0F11F460FF1BC06F5F79
:1059A0007F4F8F4F9F4F16C0882311F096E911C08B
:1059B000772321F09EE8872F762F05C0662371F0AC
:1059C00096E8862F70E060E02AF09A95660F771FC0
:1059D000881FDAF7880F9695879597F90895990F9C
:1059E0000008550FAA0BE0E8FEEF16161706E807A9
:1059F000F907C0F012161306E407F50798F0621BCA
:105A0000730B840B950B39F40A2661F0232B242B9E
:105A1000252B21F408950A2609F4A140A6958FEFBD
:105A2000811D811D089597F99F6780E870E060E00F
:105A300008959FEF80EC089500240A941616170627
:105A400018060906089500240A941216130614066F
:105A500005060895092E0394000C11F4882352F0D2
:105A6000BB0F40F4BF2B11F460FF04C06F5F7F4F8A
:105A70008F4F9F4F089557FD9058440F551F59F071
:105A80005F3F71F04795880F97FB991F61F09F3F2B
:105A900079F087950895121613061406551FF2CF54
:105AA0004695F1DF08C0161617061806991FF1CFA4
:105AB00086957105610508940895E894BB276627CB
:105AC0007727CB0197F908958ADF08F48FEF0895BF
:105AD0000BD0C0CFB1DF28F0B6DF18F0952309F066
